{
  "_format": "hh-sol-artifact-1",
  "contractName": "EventTicket",
  "sourceName": "contracts/EventTicket.sol",
  "abi": [
    {
      "inputs": [
        {
          "internalType": "string",
          "name": "_name",
          "type": "string"
        },
        {
          "internalType": "string",
          "name": "_symbol",
          "type": "string"
        },
        {
          "internalType": "string",
          "name": "_eventName",
          "type": "string"
        },
        {
          "internalType": "string",
          "name": "_eventDate",
          "type": "string"
        },
        {
          "internalType": "string",
          "name": "_eventVenue",
          "type": "string"
        },
        {
          "internalType": "uint256",
          "name": "_maxTickets",
          "type": "uint256"
        }
      ],
      "stateMutability": "nonpayable",
      "type": "constructor"
    },
    {
      "inputs": [],
      "name": "ERC721EnumerableForbiddenBatchMint",
      "type": "error"
    },
    {
      "inputs": [
        {
          "internalType": "address",
          "name": "sender",
          "type": "address"
        },
        {
          "internalType": "uint256",
          "name": "tokenId",
          "type": "uint256"
        },
        {
          "internalType": "address",
          "name": "owner",
          "type": "address"
        }
      ],
      "name": "ERC721IncorrectOwner",
      "type": "error"
    },
    {
      "inputs": [
        {
          "internalType": "address",
          "name": "operator",
          "type": "address"
        },
        {
          "internalType": "uint256",
          "name": "tokenId",
          "type": "uint256"
        }
      ],
      "name": "ERC721InsufficientApproval",
      "type": "error"
    },
    {
      "inputs": [
        {
          "internalType": "address",
          "name": "approver",
          "type": "address"
        }
      ],
      "name": "ERC721InvalidApprover",
      "type": "error"
    },
    {
      "inputs": [
        {
          "internalType": "address",
          "name": "operator",
          "type": "address"
        }
      ],
      "name": "ERC721InvalidOperator",
      "type": "error"
    },
    {
      "inputs": [
        {
          "internalType": "address",
          "name": "owner",
          "type": "address"
        }
      ],
      "name": "ERC721InvalidOwner",
      "type": "error"
    },
    {
      "inputs": [
        {
          "internalType": "address",
          "name": "receiver",
          "type": "address"
        }
      ],
      "name": "ERC721InvalidReceiver",
      "type": "error"
    },
    {
      "inputs": [
        {
          "internalType": "address",
          "name": "sender",
          "type": "address"
        }
      ],
      "name": "ERC721InvalidSender",
      "type": "error"
    },
    {
      "inputs": [
        {
          "internalType": "uint256",
          "name": "tokenId",
          "type": "uint256"
        }
      ],
      "name": "ERC721NonexistentToken",
      "type": "error"
    },
    {
      "inputs": [
        {
          "internalType": "address",
          "name": "owner",
          "type": "address"
        },
        {
          "internalType": "uint256",
          "name": "index",
          "type": "uint256"
        }
      ],
      "name": "ERC721OutOfBoundsIndex",
      "type": "error"
    },
    {
      "inputs": [
        {
          "internalType": "address",
          "name": "owner",
          "type": "address"
        }
      ],
      "name": "OwnableInvalidOwner",
      "type": "error"
    },
    {
      "inputs": [
        {
          "internalType": "address",
          "name": "account",
          "type": "address"
        }
      ],
      "name": "OwnableUnauthorizedAccount",
      "type": "error"
    },
    {
      "anonymous": false,
      "inputs": [
        {
          "indexed": true,
          "internalType": "address",
          "name": "owner",
          "type": "address"
        },
        {
          "indexed": true,
          "internalType": "address",
          "name": "approved",
          "type": "address"
        },
        {
          "indexed": true,
          "internalType": "uint256",
          "name": "tokenId",
          "type": "uint256"
        }
      ],
      "name": "Approval",
      "type": "event"
    },
    {
      "anonymous": false,
      "inputs": [
        {
          "indexed": true,
          "internalType": "address",
          "name": "owner",
          "type": "address"
        },
        {
          "indexed": true,
          "internalType": "address",
          "name": "operator",
          "type": "address"
        },
        {
          "indexed": false,
          "internalType": "bool",
          "name": "approved",
          "type": "bool"
        }
      ],
      "name": "ApprovalForAll",
      "type": "event"
    },
    {
      "anonymous": false,
      "inputs": [
        {
          "indexed": true,
          "internalType": "address",
          "name": "previousOwner",
          "type": "address"
        },
        {
          "indexed": true,
          "internalType": "address",
          "name": "newOwner",
          "type": "address"
        }
      ],
      "name": "OwnershipTransferred",
      "type": "event"
    },
    {
      "anonymous": false,
      "inputs": [
        {
          "indexed": false,
          "internalType": "address",
          "name": "owner",
          "type": "address"
        },
        {
          "indexed": false,
          "internalType": "uint256",
          "name": "ticketId",
          "type": "uint256"
        }
      ],
      "name": "TicketMinted",
      "type": "event"
    },
    {
      "anonymous": false,
      "inputs": [
        {
          "indexed": false,
          "internalType": "uint256",
          "name": "ticketId",
          "type": "uint256"
        }
      ],
      "name": "TicketUsed",
      "type": "event"
    },
    {
      "anonymous": false,
      "inputs": [
        {
          "indexed": true,
          "internalType": "address",
          "name": "from",
          "type": "address"
        },
        {
          "indexed": true,
          "internalType": "address",
          "name": "to",
          "type": "address"
        },
        {
          "indexed": true,
          "internalType": "uint256",
          "name": "tokenId",
          "type": "uint256"
        }
      ],
      "name": "Transfer",
      "type": "event"
    },
    {
      "inputs": [],
      "name": "TICKET_PRICE",
      "outputs": [
        {
          "internalType": "uint256",
          "name": "",
          "type": "uint256"
        }
      ],
      "stateMutability": "view",
      "type": "function"
    },
    {
      "inputs": [
        {
          "internalType": "address",
          "name": "to",
          "type": "address"
        },
        {
          "internalType": "uint256",
          "name": "tokenId",
          "type": "uint256"
        }
      ],
      "name": "approve",
      "outputs": [],
      "stateMutability": "nonpayable",
      "type": "function"
    },
    {
      "inputs": [
        {
          "internalType": "address",
          "name": "owner",
          "type": "address"
        }
      ],
      "name": "balanceOf",
      "outputs": [
        {
          "internalType": "uint256",
          "name": "",
          "type": "uint256"
        }
      ],
      "stateMutability": "view",
      "type": "function"
    },
    {
      "inputs": [],
      "name": "eventDate",
      "outputs": [
        {
          "internalType": "string",
          "name": "",
          "type": "string"
        }
      ],
      "stateMutability": "view",
      "type": "function"
    },
    {
      "inputs": [],
      "name": "eventName",
      "outputs": [
        {
          "internalType": "string",
          "name": "",
          "type": "string"
        }
      ],
      "stateMutability": "view",
      "type": "function"
    },
    {
      "inputs": [],
      "name": "eventVenue",
      "outputs": [
        {
          "internalType": "string",
          "name": "",
          "type": "string"
        }
      ],
      "stateMutability": "view",
      "type": "function"
    },
    {
      "inputs": [
        {
          "internalType": "uint256",
          "name": "tokenId",
          "type": "uint256"
        }
      ],
      "name": "getApproved",
      "outputs": [
        {
          "internalType": "address",
          "name": "",
          "type": "address"
        }
      ],
      "stateMutability": "view",
      "type": "function"
    },
    {
      "inputs": [
        {
          "internalType": "uint256",
          "name": "_ticketId",
          "type": "uint256"
        }
      ],
      "name": "getTicketMetadata",
      "outputs": [
        {
          "internalType": "string",
          "name": "",
          "type": "string"
        }
      ],
      "stateMutability": "view",
      "type": "function"
    },
    {
      "inputs": [
        {
          "internalType": "address",
          "name": "owner",
          "type": "address"
        },
        {
          "internalType": "address",
          "name": "operator",
          "type": "address"
        }
      ],
      "name": "isApprovedForAll",
      "outputs": [
        {
          "internalType": "bool",
          "name": "",
          "type": "bool"
        }
      ],
      "stateMutability": "view",
      "type": "function"
    },
    {
      "inputs": [
        {
          "internalType": "uint256",
          "name": "_ticketId",
          "type": "uint256"
        }
      ],
      "name": "isTicketUsed",
      "outputs": [
        {
          "internalType": "bool",
          "name": "",
          "type": "bool"
        }
      ],
      "stateMutability": "view",
      "type": "function"
    },
    {
      "inputs": [],
      "name": "maxTickets",
      "outputs": [
        {
          "internalType": "uint256",
          "name": "",
          "type": "uint256"
        }
      ],
      "stateMutability": "view",
      "type": "function"
    },
    {
      "inputs": [],
      "name": "mintTicket",
      "outputs": [
        {
          "internalType": "uint256",
          "name": "",
          "type": "uint256"
        }
      ],
      "stateMutability": "payable",
      "type": "function"
    },
    {
      "inputs": [],
      "name": "name",
      "outputs": [
        {
          "internalType": "string",
          "name": "",
          "type": "string"
        }
      ],
      "stateMutability": "view",
      "type": "function"
    },
    {
      "inputs": [],
      "name": "owner",
      "outputs": [
        {
          "internalType": "address",
          "name": "",
          "type": "address"
        }
      ],
      "stateMutability": "view",
      "type": "function"
    },
    {
      "inputs": [
        {
          "internalType": "uint256",
          "name": "tokenId",
          "type": "uint256"
        }
      ],
      "name": "ownerOf",
      "outputs": [
        {
          "internalType": "address",
          "name": "",
          "type": "address"
        }
      ],
      "stateMutability": "view",
      "type": "function"
    },
    {
      "inputs": [],
      "name": "renounceOwnership",
      "outputs": [],
      "stateMutability": "nonpayable",
      "type": "function"
    },
    {
      "inputs": [
        {
          "internalType": "address",
          "name": "from",
          "type": "address"
        },
        {
          "internalType": "address",
          "name": "to",
          "type": "address"
        },
        {
          "internalType": "uint256",
          "name": "tokenId",
          "type": "uint256"
        }
      ],
      "name": "safeTransferFrom",
      "outputs": [],
      "stateMutability": "nonpayable",
      "type": "function"
    },
    {
      "inputs": [
        {
          "internalType": "address",
          "name": "from",
          "type": "address"
        },
        {
          "internalType": "address",
          "name": "to",
          "type": "address"
        },
        {
          "internalType": "uint256",
          "name": "tokenId",
          "type": "uint256"
        },
        {
          "internalType": "bytes",
          "name": "data",
          "type": "bytes"
        }
      ],
      "name": "safeTransferFrom",
      "outputs": [],
      "stateMutability": "nonpayable",
      "type": "function"
    },
    {
      "inputs": [
        {
          "internalType": "address",
          "name": "operator",
          "type": "address"
        },
        {
          "internalType": "bool",
          "name": "approved",
          "type": "bool"
        }
      ],
      "name": "setApprovalForAll",
      "outputs": [],
      "stateMutability": "nonpayable",
      "type": "function"
    },
    {
      "inputs": [
        {
          "internalType": "uint256",
          "name": "_ticketId",
          "type": "uint256"
        },
        {
          "internalType": "string",
          "name": "_metadata",
          "type": "string"
        }
      ],
      "name": "setTicketMetadata",
      "outputs": [],
      "stateMutability": "nonpayable",
      "type": "function"
    },
    {
      "inputs": [
        {
          "internalType": "bytes4",
          "name": "interfaceId",
          "type": "bytes4"
        }
      ],
      "name": "supportsInterface",
      "outputs": [
        {
          "internalType": "bool",
          "name": "",
          "type": "bool"
        }
      ],
      "stateMutability": "view",
      "type": "function"
    },
    {
      "inputs": [],
      "name": "symbol",
      "outputs": [
        {
          "internalType": "string",
          "name": "",
          "type": "string"
        }
      ],
      "stateMutability": "view",
      "type": "function"
    },
    {
      "inputs": [
        {
          "internalType": "uint256",
          "name": "",
          "type": "uint256"
        }
      ],
      "name": "ticketMetadata",
      "outputs": [
        {
          "internalType": "string",
          "name": "",
          "type": "string"
        }
      ],
      "stateMutability": "view",
      "type": "function"
    },
    {
      "inputs": [
        {
          "internalType": "uint256",
          "name": "index",
          "type": "uint256"
        }
      ],
      "name": "tokenByIndex",
      "outputs": [
        {
          "internalType": "uint256",
          "name": "",
          "type": "uint256"
        }
      ],
      "stateMutability": "view",
      "type": "function"
    },
    {
      "inputs": [
        {
          "internalType": "address",
          "name": "owner",
          "type": "address"
        },
        {
          "internalType": "uint256",
          "name": "index",
          "type": "uint256"
        }
      ],
      "name": "tokenOfOwnerByIndex",
      "outputs": [
        {
          "internalType": "uint256",
          "name": "",
          "type": "uint256"
        }
      ],
      "stateMutability": "view",
      "type": "function"
    },
    {
      "inputs": [
        {
          "internalType": "uint256",
          "name": "tokenId",
          "type": "uint256"
        }
      ],
      "name": "tokenURI",
      "outputs": [
        {
          "internalType": "string",
          "name": "",
          "type": "string"
        }
      ],
      "stateMutability": "view",
      "type": "function"
    },
    {
      "inputs": [],
      "name": "totalSupply",
      "outputs": [
        {
          "internalType": "uint256",
          "name": "",
          "type": "uint256"
        }
      ],
      "stateMutability": "view",
      "type": "function"
    },
    {
      "inputs": [
        {
          "internalType": "address",
          "name": "from",
          "type": "address"
        },
        {
          "internalType": "address",
          "name": "to",
          "type": "address"
        },
        {
          "internalType": "uint256",
          "name": "tokenId",
          "type": "uint256"
        }
      ],
      "name": "transferFrom",
      "outputs": [],
      "stateMutability": "nonpayable",
      "type": "function"
    },
    {
      "inputs": [
        {
          "internalType": "address",
          "name": "newOwner",
          "type": "address"
        }
      ],
      "name": "transferOwnership",
      "outputs": [],
      "stateMutability": "nonpayable",
      "type": "function"
    },
    {
      "inputs": [
        {
          "internalType": "uint256",
          "name": "_ticketId",
          "type": "uint256"
        }
      ],
      "name": "useTicket",
      "outputs": [],
      "stateMutability": "nonpayable",
      "type": "function"
    },
    {
      "inputs": [
        {
          "internalType": "uint256",
          "name": "",
          "type": "uint256"
        }
      ],
      "name": "usedTickets",
      "outputs": [
        {
          "internalType": "bool",
          "name": "",
          "type": "bool"
        }
      ],
      "stateMutability": "view",
      "type": "function"
    },
    {
      "inputs": [],
      "name": "withdraw",
      "outputs": [],
      "stateMutability": "nonpayable",
      "type": "function"
    }
  ],
  "bytecode": "0x60806040523480156200001157600080fd5b5060405162004564380380620045648339818101604052810190620000379190620003c4565b33868681600090816200004b91906200073c565b5080600190816200005d91906200073c565b505050600073ffffffffffffffffffffffffffffffffffffffff168173ffffffffffffffffffffffffffffffffffffffff1603620000d55760006040517f1e4fbdf7000000000000000000000000000000000000000000000000000000008152600401620000cc919062000868565b60405180910390fd5b620000e6816200013060201b60201c565b5083600d9081620000f891906200073c565b5082600e90816200010a91906200073c565b5081600f90816200011c91906200073c565b5080600c8190555050505050505062000885565b6000600a60009054906101000a900473ffffffffffffffffffffffffffffffffffffffff16905081600a60006101000a81548173ffffffffffffffffffffffffffffffffffffffff021916908373ffffffffffffffffffffffffffffffffffffffff1602179055508173ffffffffffffffffffffffffffffffffffffffff168173ffffffffffffffffffffffffffffffffffffffff167f8be0079c531659141344cd1fd0a4f28419497f9722a3daafe3b4186f6b6457e060405160405180910390a35050565b6000604051905090565b600080fd5b600080fd5b600080fd5b600080fd5b6000601f19601f8301169050919050565b7f4e487b7100000000000000000000000000000000000000000000000000000000600052604160045260246000fd5b6200025f8262000214565b810181811067ffffffffffffffff8211171562000281576200028062000225565b5b80604052505050565b600062000296620001f6565b9050620002a4828262000254565b919050565b600067ffffffffffffffff821115620002c757620002c662000225565b5b620002d28262000214565b9050602081019050919050565b60005b83811015620002ff578082015181840152602081019050620002e2565b60008484015250505050565b6000620003226200031c84620002a9565b6200028a565b9050828152602081018484840111156200034157620003406200020f565b5b6200034e848285620002df565b509392505050565b600082601f8301126200036e576200036d6200020a565b5b8151620003808482602086016200030b565b91505092915050565b6000819050919050565b6200039e8162000389565b8114620003aa57600080fd5b50565b600081519050620003be8162000393565b92915050565b60008060008060008060c08789031215620003e457620003e362000200565b5b600087015167ffffffffffffffff81111562000405576200040462000205565b5b6200041389828a0162000356565b965050602087015167ffffffffffffffff81111562000437576200043662000205565b5b6200044589828a0162000356565b955050604087015167ffffffffffffffff81111562000469576200046862000205565b5b6200047789828a0162000356565b945050606087015167ffffffffffffffff8111156200049b576200049a62000205565b5b620004a989828a0162000356565b935050608087015167ffffffffffffffff811115620004cd57620004cc62000205565b5b620004db89828a0162000356565b92505060a0620004ee89828a01620003ad565b9150509295509295509295565b600081519050919050565b7f4e487b7100000000000000000000000000000000000000000000000000000000600052602260045260246000fd5b600060028204905060018216806200054e57607f821691505b60208210810362000564576200056362000506565b5b50919050565b60008190508160005260206000209050919050565b60006020601f8301049050919050565b600082821b905092915050565b600060088302620005ce7fffffffffffffffffffffffffffffffffffffffffffffffffffffffffffffffff826200058f565b620005da86836200058f565b95508019841693508086168417925050509392505050565b6000819050919050565b60006200061d62000617620006118462000389565b620005f2565b62000389565b9050919050565b6000819050919050565b6200063983620005fc565b62000651620006488262000624565b8484546200059c565b825550505050565b600090565b6200066862000659565b620006758184846200062e565b505050565b5b818110156200069d57620006916000826200065e565b6001810190506200067b565b5050565b601f821115620006ec57620006b6816200056a565b620006c1846200057f565b81016020851015620006d1578190505b620006e9620006e0856200057f565b8301826200067a565b50505b505050565b600082821c905092915050565b60006200071160001984600802620006f1565b1980831691505092915050565b60006200072c8383620006fe565b9150826002028217905092915050565b6200074782620004fb565b67ffffffffffffffff81111562000763576200076262000225565b5b6200076f825462000535565b6200077c828285620006a1565b600060209050601f831160018114620007b457600084156200079f578287015190505b620007ab85826200071e565b8655506200081b565b601f198416620007c4866200056a565b60005b82811015620007ee57848901518255600182019150602085019450602081019050620007c7565b868310156200080e57848901516200080a601f891682620006fe565b8355505b6001600288020188555050505b505050505050565b600073ffffffffffffffffffffffffffffffffffffffff82169050919050565b6000620008508262000823565b9050919050565b620008628162000843565b82525050565b60006020820190506200087f600083018462000857565b92915050565b613ccf80620008956000396000f3fe6080604052600436106101e35760003560e01c806370a0823111610102578063b88d4fde11610095578063e22bda3511610064578063e22bda351461070d578063e985e9c514610738578063ea05fc5114610775578063f2fde38b146107b2576101e3565b8063b88d4fde14610641578063ba0ae43c1461066a578063c87b56dd146106a7578063de28c0e4146106e4576101e3565b80638da5cb5b116100d15780638da5cb5b1461059757806395d89b41146105c25780639b894703146105ed578063a22cb46514610618576101e3565b806370a08231146104db578063715018a61461051857806371efdc211461052f5780638043c9c01461056c576101e3565b80632cd1d35c1161017a5780634bfbe5df116101495780634bfbe5df146104185780634f6ccce714610443578063573c80fa146104805780636352211e1461049e576101e3565b80632cd1d35c1461035e5780632f745c591461039b5780633ccfd60b146103d857806342842e0e146103ef576101e3565b806318160ddd116101b657806318160ddd146102b65780631a95f15f146102e157806323b872dd1461030c5780632660644814610335576101e3565b806301ffc9a7146101e857806306fdde0314610225578063081812fc14610250578063095ea7b31461028d575b600080fd5b3480156101f457600080fd5b5061020f600480360381019061020a9190612b5a565b6107db565b60405161021c9190612ba2565b60405180910390f35b34801561023157600080fd5b5061023a6107ed565b6040516102479190612c4d565b60405180910390f35b34801561025c57600080fd5b5061027760048036038101906102729190612ca5565b61087f565b6040516102849190612d13565b60405180910390f35b34801561029957600080fd5b506102b460048036038101906102af9190612d5a565b61089b565b005b3480156102c257600080fd5b506102cb6108b1565b6040516102d89190612da9565b60405180910390f35b3480156102ed57600080fd5b506102f66108be565b6040516103039190612da9565b60405180910390f35b34801561031857600080fd5b50610333600480360381019061032e9190612dc4565b6108c9565b005b34801561034157600080fd5b5061035c60048036038101906103579190612ca5565b6109cb565b005b34801561036a57600080fd5b5061038560048036038101906103809190612ca5565b610b08565b6040516103929190612ba2565b60405180910390f35b3480156103a757600080fd5b506103c260048036038101906103bd9190612d5a565b610b32565b6040516103cf9190612da9565b60405180910390f35b3480156103e457600080fd5b506103ed610bdb565b005b3480156103fb57600080fd5b5061041660048036038101906104119190612dc4565b610c33565b005b34801561042457600080fd5b5061042d610c53565b60405161043a9190612c4d565b60405180910390f35b34801561044f57600080fd5b5061046a60048036038101906104659190612ca5565b610ce1565b6040516104779190612da9565b60405180910390f35b610488610d57565b6040516104959190612da9565b60405180910390f35b3480156104aa57600080fd5b506104c560048036038101906104c09190612ca5565b610ea8565b6040516104d29190612d13565b60405180910390f35b3480156104e757600080fd5b5061050260048036038101906104fd9190612e17565b610eba565b60405161050f9190612da9565b60405180910390f35b34801561052457600080fd5b5061052d610f74565b005b34801561053b57600080fd5b5061055660048036038101906105519190612ca5565b610f88565b6040516105639190612ba2565b60405180910390f35b34801561057857600080fd5b50610581610fa8565b60405161058e9190612c4d565b60405180910390f35b3480156105a357600080fd5b506105ac611036565b6040516105b99190612d13565b60405180910390f35b3480156105ce57600080fd5b506105d7611060565b6040516105e49190612c4d565b60405180910390f35b3480156105f957600080fd5b506106026110f2565b60405161060f9190612da9565b60405180910390f35b34801561062457600080fd5b5061063f600480360381019061063a9190612e70565b6110f8565b005b34801561064d57600080fd5b5061066860048036038101906106639190612fe5565b61110e565b005b34801561067657600080fd5b50610691600480360381019061068c9190612ca5565b611133565b60405161069e9190612c4d565b60405180910390f35b3480156106b357600080fd5b506106ce60048036038101906106c99190612ca5565b61121c565b6040516106db9190612c4d565b60405180910390f35b3480156106f057600080fd5b5061070b60048036038101906107069190613109565b611285565b005b34801561071957600080fd5b5061072261135d565b60405161072f9190612c4d565b60405180910390f35b34801561074457600080fd5b5061075f600480360381019061075a9190613165565b6113eb565b60405161076c9190612ba2565b60405180910390f35b34801561078157600080fd5b5061079c60048036038101906107979190612ca5565b61147f565b6040516107a99190612c4d565b60405180910390f35b3480156107be57600080fd5b506107d960048036038101906107d49190612e17565b61151f565b005b60006107e6826115a5565b9050919050565b6060600080546107fc906131d4565b80601f0160208091040260200160405190810160405280929190818152602001828054610828906131d4565b80156108755780601f1061084a57610100808354040283529160200191610875565b820191906000526020600020905b81548152906001019060200180831161085857829003601f168201915b5050505050905090565b600061088a8261161f565b50610894826116a7565b9050919050565b6108ad82826108a86116e4565b6116ec565b5050565b6000600880549050905090565b662386f26fc1000081565b600073ffffffffffffffffffffffffffffffffffffffff168273ffffffffffffffffffffffffffffffffffffffff160361093b5760006040517f64a0ae920000000000000000000000000000000000000000000000000000000081526004016109329190612d13565b60405180910390fd5b600061094f838361094a6116e4565b6116fe565b90508373ffffffffffffffffffffffffffffffffffffffff168173ffffffffffffffffffffffffffffffffffffffff16146109c5578382826040517f64283d7b0000000000000000000000000000000000000000000000000000000081526004016109bc93929190613205565b60405180910390fd5b50505050565b3373ffffffffffffffffffffffffffffffffffffffff166109eb82610ea8565b73ffffffffffffffffffffffffffffffffffffffff1614610a41576040517f08c379a0000000000000000000000000000000000000000000000000000000008152600401610a3890613288565b60405180910390fd5b6010600082815260200190815260200160002060009054906101000a900460ff1615610aa2576040517f08c379a0000000000000000000000000000000000000000000000000000000008152600401610a99906132f4565b60405180910390fd5b60016010600083815260200190815260200160002060006101000a81548160ff0219169083151502179055507f1f5d53e38fbc5a40092861e993062e74fb6dc7acef58356c7b55aa1afd8b350181604051610afd9190612da9565b60405180910390a150565b60006010600083815260200190815260200160002060009054906101000a900460ff169050919050565b6000610b3d83610eba565b8210610b825782826040517fa57d13dc000000000000000000000000000000000000000000000000000000008152600401610b79929190613314565b60405180910390fd5b600660008473ffffffffffffffffffffffffffffffffffffffff1673ffffffffffffffffffffffffffffffffffffffff168152602001908152602001600020600083815260200190815260200160002054905092915050565b610be3611714565b610beb611036565b73ffffffffffffffffffffffffffffffffffffffff166108fc479081150290604051600060405180830381858888f19350505050158015610c30573d6000803e3d6000fd5b50565b610c4e8383836040518060200160405280600081525061110e565b505050565b600e8054610c60906131d4565b80601f0160208091040260200160405190810160405280929190818152602001828054610c8c906131d4565b8015610cd95780601f10610cae57610100808354040283529160200191610cd9565b820191906000526020600020905b815481529060010190602001808311610cbc57829003601f168201915b505050505081565b6000610ceb6108b1565b8210610d31576000826040517fa57d13dc000000000000000000000000000000000000000000000000000000008152600401610d28929190613314565b60405180910390fd5b60088281548110610d4557610d4461333d565b5b90600052602060002001549050919050565b6000600c54610d646108b1565b10610da4576040517f08c379a0000000000000000000000000000000000000000000000000000000008152600401610d9b906133b8565b60405180910390fd5b662386f26fc10000341015610dee576040517f08c379a0000000000000000000000000000000000000000000000000000000008152600401610de590613424565b60405180910390fd5b6000600b549050600b6000815480929190610e0890613473565b9190505550610e17338261179b565b600d600e600f610e26846117b9565b604051602001610e3994939291906136bf565b604051602081830303815290604052601160008381526020019081526020016000209081610e6791906138c0565b507fe3bc6f5972e89b7adec47f0277204f27cd981570e200dd4d408093535c9e8e693382604051610e99929190613314565b60405180910390a18091505090565b6000610eb38261161f565b9050919050565b60008073ffffffffffffffffffffffffffffffffffffffff168273ffffffffffffffffffffffffffffffffffffffff1603610f2d5760006040517f89c62b64000000000000000000000000000000000000000000000000000000008152600401610f249190612d13565b60405180910390fd5b600360008373ffffffffffffffffffffffffffffffffffffffff1673ffffffffffffffffffffffffffffffffffffffff168152602001908152602001600020549050919050565b610f7c611714565b610f866000611919565b565b60106020528060005260406000206000915054906101000a900460ff1681565b600d8054610fb5906131d4565b80601f0160208091040260200160405190810160405280929190818152602001828054610fe1906131d4565b801561102e5780601f106110035761010080835404028352916020019161102e565b820191906000526020600020905b81548152906001019060200180831161101157829003601f168201915b505050505081565b6000600a60009054906101000a900473ffffffffffffffffffffffffffffffffffffffff16905090565b60606001805461106f906131d4565b80601f016020809104026020016040519081016040528092919081815260200182805461109b906131d4565b80156110e85780601f106110bd576101008083540402835291602001916110e8565b820191906000526020600020905b8154815290600101906020018083116110cb57829003601f168201915b5050505050905090565b600c5481565b61110a6111036116e4565b83836119df565b5050565b6111198484846108c9565b61112d6111246116e4565b85858585611b4e565b50505050565b6060600b548210611179576040517f08c379a0000000000000000000000000000000000000000000000000000000008152600401611170906139de565b60405180910390fd5b601160008381526020019081526020016000208054611197906131d4565b80601f01602080910402602001604051908101604052809291908181526020018280546111c3906131d4565b80156112105780601f106111e557610100808354040283529160200191611210565b820191906000526020600020905b8154815290600101906020018083116111f357829003601f168201915b50505050509050919050565b60606112278261161f565b506000611232611cff565b90506000815111611252576040518060200160405280600081525061127d565b8061125c84611d16565b60405160200161126d9291906139fe565b6040516020818303038152906040525b915050919050565b3373ffffffffffffffffffffffffffffffffffffffff166112a583610ea8565b73ffffffffffffffffffffffffffffffffffffffff1614806112f957506112ca611036565b73ffffffffffffffffffffffffffffffffffffffff163373ffffffffffffffffffffffffffffffffffffffff16145b611338576040517f08c379a000000000000000000000000000000000000000000000000000000000815260040161132f90613a6e565b60405180910390fd5b8060116000848152602001908152602001600020908161135891906138c0565b505050565b600f805461136a906131d4565b80601f0160208091040260200160405190810160405280929190818152602001828054611396906131d4565b80156113e35780601f106113b8576101008083540402835291602001916113e3565b820191906000526020600020905b8154815290600101906020018083116113c657829003601f168201915b505050505081565b6000600560008473ffffffffffffffffffffffffffffffffffffffff1673ffffffffffffffffffffffffffffffffffffffff16815260200190815260200160002060008373ffffffffffffffffffffffffffffffffffffffff1673ffffffffffffffffffffffffffffffffffffffff16815260200190815260200160002060009054906101000a900460ff16905092915050565b6011602052806000526040600020600091509050805461149e906131d4565b80601f01602080910402602001604051908101604052809291908181526020018280546114ca906131d4565b80156115175780601f106114ec57610100808354040283529160200191611517565b820191906000526020600020905b8154815290600101906020018083116114fa57829003601f168201915b505050505081565b611527611714565b600073ffffffffffffffffffffffffffffffffffffffff168173ffffffffffffffffffffffffffffffffffffffff16036115995760006040517f1e4fbdf70000000000000000000000000000000000000000000000000000000081526004016115909190612d13565b60405180910390fd5b6115a281611919565b50565b60007f780e9d63000000000000000000000000000000000000000000000000000000007bffffffffffffffffffffffffffffffffffffffffffffffffffffffff1916827bffffffffffffffffffffffffffffffffffffffffffffffffffffffff19161480611618575061161782611de4565b5b9050919050565b60008061162b83611ec6565b9050600073ffffffffffffffffffffffffffffffffffffffff168173ffffffffffffffffffffffffffffffffffffffff160361169e57826040517f7e2732890000000000000000000000000000000000000000000000000000000081526004016116959190612da9565b60405180910390fd5b80915050919050565b60006004600083815260200190815260200160002060009054906101000a900473ffffffffffffffffffffffffffffffffffffffff169050919050565b600033905090565b6116f98383836001611f03565b505050565b600061170b8484846120c8565b90509392505050565b61171c6116e4565b73ffffffffffffffffffffffffffffffffffffffff1661173a611036565b73ffffffffffffffffffffffffffffffffffffffff16146117995761175d6116e4565b6040517f118cdaa70000000000000000000000000000000000000000000000000000000081526004016117909190612d13565b60405180910390fd5b565b6117b58282604051806020016040528060008152506121e5565b5050565b606060008203611800576040518060400160405280600181526020017f30000000000000000000000000000000000000000000000000000000000000008152509050611914565b600082905060005b6000821461183257808061181b90613473565b915050600a8261182b9190613abd565b9150611808565b60008167ffffffffffffffff81111561184e5761184d612eba565b5b6040519080825280601f01601f1916602001820160405280156118805781602001600182028036833780820191505090505b5090505b6000851461190d576001826118999190613aee565b9150600a856118a89190613b22565b60306118b49190613b53565b60f81b8183815181106118ca576118c961333d565b5b60200101907effffffffffffffffffffffffffffffffffffffffffffffffffffffffffffff1916908160001a905350600a856119069190613abd565b9450611884565b8093505050505b919050565b6000600a60009054906101000a900473ffffffffffffffffffffffffffffffffffffffff16905081600a60006101000a81548173ffffffffffffffffffffffffffffffffffffffff021916908373ffffffffffffffffffffffffffffffffffffffff1602179055508173ffffffffffffffffffffffffffffffffffffffff168173ffffffffffffffffffffffffffffffffffffffff167f8be0079c531659141344cd1fd0a4f28419497f9722a3daafe3b4186f6b6457e060405160405180910390a35050565b600073ffffffffffffffffffffffffffffffffffffffff168273ffffffffffffffffffffffffffffffffffffffff1603611a5057816040517f5b08ba18000000000000000000000000000000000000000000000000000000008152600401611a479190612d13565b60405180910390fd5b80600560008573ffffffffffffffffffffffffffffffffffffffff1673ffffffffffffffffffffffffffffffffffffffff16815260200190815260200160002060008473ffffffffffffffffffffffffffffffffffffffff1673ffffffffffffffffffffffffffffffffffffffff16815260200190815260200160002060006101000a81548160ff0219169083151502179055508173ffffffffffffffffffffffffffffffffffffffff168373ffffffffffffffffffffffffffffffffffffffff167f17307eab39ab6107e8899845ad3d59bd9653f200f220920489ca2b5937696c3183604051611b419190612ba2565b60405180910390a3505050565b60008373ffffffffffffffffffffffffffffffffffffffff163b1115611cf8578273ffffffffffffffffffffffffffffffffffffffff1663150b7a02868685856040518563ffffffff1660e01b8152600401611bad9493929190613bdc565b6020604051808303816000875af1925050508015611be957506040513d601f19601f82011682018060405250810190611be69190613c3d565b60015b611c6d573d8060008114611c19576040519150601f19603f3d011682016040523d82523d6000602084013e611c1e565b606091505b506000815103611c6557836040517f64a0ae92000000000000000000000000000000000000000000000000000000008152600401611c5c9190612d13565b60405180910390fd5b805181602001fd5b63150b7a0260e01b7bffffffffffffffffffffffffffffffffffffffffffffffffffffffff1916817bffffffffffffffffffffffffffffffffffffffffffffffffffffffff191614611cf657836040517f64a0ae92000000000000000000000000000000000000000000000000000000008152600401611ced9190612d13565b60405180910390fd5b505b5050505050565b606060405180602001604052806000815250905090565b606060006001611d2584612209565b01905060008167ffffffffffffffff811115611d4457611d43612eba565b5b6040519080825280601f01601f191660200182016040528015611d765781602001600182028036833780820191505090505b509050600082602001820190505b600115611dd9578080600190039150507f3031323334353637383961626364656600000000000000000000000000000000600a86061a8153600a8581611dcd57611dcc613a8e565b5b04945060008503611d84575b819350505050919050565b60007f80ac58cd000000000000000000000000000000000000000000000000000000007bffffffffffffffffffffffffffffffffffffffffffffffffffffffff1916827bffffffffffffffffffffffffffffffffffffffffffffffffffffffff19161480611eaf57507f5b5e139f000000000000000000000000000000000000000000000000000000007bffffffffffffffffffffffffffffffffffffffffffffffffffffffff1916827bffffffffffffffffffffffffffffffffffffffffffffffffffffffff1916145b80611ebf5750611ebe8261235c565b5b9050919050565b60006002600083815260200190815260200160002060009054906101000a900473ffffffffffffffffffffffffffffffffffffffff169050919050565b8080611f3c5750600073ffffffffffffffffffffffffffffffffffffffff168273ffffffffffffffffffffffffffffffffffffffff1614155b15612070576000611f4c8461161f565b9050600073ffffffffffffffffffffffffffffffffffffffff168373ffffffffffffffffffffffffffffffffffffffff1614158015611fb757508273ffffffffffffffffffffffffffffffffffffffff168173ffffffffffffffffffffffffffffffffffffffff1614155b8015611fca5750611fc881846113eb565b155b1561200c57826040517fa9fbf51f0000000000000000000000000000000000000000000000000000000081526004016120039190612d13565b60405180910390fd5b811561206e57838573ffffffffffffffffffffffffffffffffffffffff168273ffffffffffffffffffffffffffffffffffffffff167f8c5be1e5ebec7d5bd14f71427d1e84f3dd0314c0f7b2291e5b200ac8c7c3b92560405160405180910390a45b505b836004600085815260200190815260200160002060006101000a81548173ffffffffffffffffffffffffffffffffffffffff021916908373ffffffffffffffffffffffffffffffffffffffff16021790555050505050565b6000806120d68585856123c6565b9050600073ffffffffffffffffffffffffffffffffffffffff168173ffffffffffffffffffffffffffffffffffffffff160361211a57612115846125e0565b612159565b8473ffffffffffffffffffffffffffffffffffffffff168173ffffffffffffffffffffffffffffffffffffffff1614612158576121578185612629565b5b5b600073ffffffffffffffffffffffffffffffffffffffff168573ffffffffffffffffffffffffffffffffffffffff160361219b5761219684612714565b6121da565b8473ffffffffffffffffffffffffffffffffffffffff168173ffffffffffffffffffffffffffffffffffffffff16146121d9576121d885856127e5565b5b5b809150509392505050565b6121ef8383612870565b6122046121fa6116e4565b6000858585611b4e565b505050565b600080600090507a184f03e93ff9f4daa797ed6e38ed64bf6a1f0100000000000000008310612267577a184f03e93ff9f4daa797ed6e38ed64bf6a1f010000000000000000838161225d5761225c613a8e565b5b0492506040810190505b6d04ee2d6d415b85acef810000000083106122a4576d04ee2d6d415b85acef8100000000838161229a57612299613a8e565b5b0492506020810190505b662386f26fc1000083106122d357662386f26fc1000083816122c9576122c8613a8e565b5b0492506010810190505b6305f5e10083106122fc576305f5e10083816122f2576122f1613a8e565b5b0492506008810190505b612710831061232157612710838161231757612316613a8e565b5b0492506004810190505b60648310612344576064838161233a57612339613a8e565b5b0492506002810190505b600a8310612353576001810190505b80915050919050565b60007f01ffc9a7000000000000000000000000000000000000000000000000000000007bffffffffffffffffffffffffffffffffffffffffffffffffffffffff1916827bffffffffffffffffffffffffffffffffffffffffffffffffffffffff1916149050919050565b6000806123d284611ec6565b9050600073ffffffffffffffffffffffffffffffffffffffff168373ffffffffffffffffffffffffffffffffffffffff161461241457612413818486612969565b5b600073ffffffffffffffffffffffffffffffffffffffff168173ffffffffffffffffffffffffffffffffffffffff16146124a557612456600085600080611f03565b6001600360008373ffffffffffffffffffffffffffffffffffffffff1673ffffffffffffffffffffffffffffffffffffffff168152602001908152602001600020600082825403925050819055505b600073ffffffffffffffffffffffffffffffffffffffff168573ffffffffffffffffffffffffffffffffffffffff1614612528576001600360008773ffffffffffffffffffffffffffffffffffffffff1673ffffffffffffffffffffffffffffffffffffffff168152602001908152602001600020600082825401925050819055505b846002600086815260200190815260200160002060006101000a81548173ffffffffffffffffffffffffffffffffffffffff021916908373ffffffffffffffffffffffffffffffffffffffff160217905550838573ffffffffffffffffffffffffffffffffffffffff168273ffffffffffffffffffffffffffffffffffffffff167fddf252ad1be2c89b69c2b068fc378daa952ba7f163c4a11628f55a4df523b3ef60405160405180910390a4809150509392505050565b6008805490506009600083815260200190815260200160002081905550600881908060018154018082558091505060019003906000526020600020016000909190919091505550565b600061263483610eba565b90506000600760008481526020019081526020016000205490506000600660008673ffffffffffffffffffffffffffffffffffffffff1673ffffffffffffffffffffffffffffffffffffffff16815260200190815260200160002090508282146126e05760008160008581526020019081526020016000205490508082600085815260200190815260200160002081905550826007600083815260200190815260200160002081905550505b6007600085815260200190815260200160002060009055806000848152602001908152602001600020600090555050505050565b600060016008805490506127289190613aee565b90506000600960008481526020019081526020016000205490506000600883815481106127585761275761333d565b5b90600052602060002001549050806008838154811061277a5761277961333d565b5b9060005260206000200181905550816009600083815260200190815260200160002081905550600960008581526020019081526020016000206000905560088054806127c9576127c8613c6a565b5b6001900381819060005260206000200160009055905550505050565b600060016127f284610eba565b6127fc9190613aee565b905081600660008573ffffffffffffffffffffffffffffffffffffffff1673ffffffffffffffffffffffffffffffffffffffff168152602001908152602001600020600083815260200190815260200160002081905550806007600084815260200190815260200160002081905550505050565b600073ffffffffffffffffffffffffffffffffffffffff168273ffffffffffffffffffffffffffffffffffffffff16036128e25760006040517f64a0ae920000000000000000000000000000000000000000000000000000000081526004016128d99190612d13565b60405180910390fd5b60006128f0838360006116fe565b9050600073ffffffffffffffffffffffffffffffffffffffff168173ffffffffffffffffffffffffffffffffffffffff16146129645760006040517f73c6ac6e00000000000000000000000000000000000000000000000000000000815260040161295b9190612d13565b60405180910390fd5b505050565b612974838383612a2d565b612a2857600073ffffffffffffffffffffffffffffffffffffffff168373ffffffffffffffffffffffffffffffffffffffff16036129e957806040517f7e2732890000000000000000000000000000000000000000000000000000000081526004016129e09190612da9565b60405180910390fd5b81816040517f177e802f000000000000000000000000000000000000000000000000000000008152600401612a1f929190613314565b60405180910390fd5b505050565b60008073ffffffffffffffffffffffffffffffffffffffff168373ffffffffffffffffffffffffffffffffffffffff1614158015612ae557508273ffffffffffffffffffffffffffffffffffffffff168473ffffffffffffffffffffffffffffffffffffffff161480612aa65750612aa584846113eb565b5b80612ae457508273ffffffffffffffffffffffffffffffffffffffff16612acc836116a7565b73ffffffffffffffffffffffffffffffffffffffff16145b5b90509392505050565b6000604051905090565b600080fd5b600080fd5b60007fffffffff0000000000000000000000000000000000000000000000000000000082169050919050565b612b3781612b02565b8114612b4257600080fd5b50565b600081359050612b5481612b2e565b92915050565b600060208284031215612b7057612b6f612af8565b5b6000612b7e84828501612b45565b91505092915050565b60008115159050919050565b612b9c81612b87565b82525050565b6000602082019050612bb76000830184612b93565b92915050565b600081519050919050565b600082825260208201905092915050565b60005b83811015612bf7578082015181840152602081019050612bdc565b60008484015250505050565b6000601f19601f8301169050919050565b6000612c1f82612bbd565b612c298185612bc8565b9350612c39818560208601612bd9565b612c4281612c03565b840191505092915050565b60006020820190508181036000830152612c678184612c14565b905092915050565b6000819050919050565b612c8281612c6f565b8114612c8d57600080fd5b50565b600081359050612c9f81612c79565b92915050565b600060208284031215612cbb57612cba612af8565b5b6000612cc984828501612c90565b91505092915050565b600073ffffffffffffffffffffffffffffffffffffffff82169050919050565b6000612cfd82612cd2565b9050919050565b612d0d81612cf2565b82525050565b6000602082019050612d286000830184612d04565b92915050565b612d3781612cf2565b8114612d4257600080fd5b50565b600081359050612d5481612d2e565b92915050565b60008060408385031215612d7157612d70612af8565b5b6000612d7f85828601612d45565b9250506020612d9085828601612c90565b9150509250929050565b612da381612c6f565b82525050565b6000602082019050612dbe6000830184612d9a565b92915050565b600080600060608486031215612ddd57612ddc612af8565b5b6000612deb86828701612d45565b9350506020612dfc86828701612d45565b9250506040612e0d86828701612c90565b9150509250925092565b600060208284031215612e2d57612e2c612af8565b5b6000612e3b84828501612d45565b91505092915050565b612e4d81612b87565b8114612e5857600080fd5b50565b600081359050612e6a81612e44565b92915050565b60008060408385031215612e8757612e86612af8565b5b6000612e9585828601612d45565b9250506020612ea685828601612e5b565b9150509250929050565b600080fd5b600080fd5b7f4e487b7100000000000000000000000000000000000000000000000000000000600052604160045260246000fd5b612ef282612c03565b810181811067ffffffffffffffff82111715612f1157612f10612eba565b5b80604052505050565b6000612f24612aee565b9050612f308282612ee9565b919050565b600067ffffffffffffffff821115612f5057612f4f612eba565b5b612f5982612c03565b9050602081019050919050565b82818337600083830152505050565b6000612f88612f8384612f35565b612f1a565b905082815260208101848484011115612fa457612fa3612eb5565b5b612faf848285612f66565b509392505050565b600082601f830112612fcc57612fcb612eb0565b5b8135612fdc848260208601612f75565b91505092915050565b60008060008060808587031215612fff57612ffe612af8565b5b600061300d87828801612d45565b945050602061301e87828801612d45565b935050604061302f87828801612c90565b925050606085013567ffffffffffffffff8111156130505761304f612afd565b5b61305c87828801612fb7565b91505092959194509250565b600067ffffffffffffffff82111561308357613082612eba565b5b61308c82612c03565b9050602081019050919050565b60006130ac6130a784613068565b612f1a565b9050828152602081018484840111156130c8576130c7612eb5565b5b6130d3848285612f66565b509392505050565b600082601f8301126130f0576130ef612eb0565b5b8135613100848260208601613099565b91505092915050565b600080604083850312156131205761311f612af8565b5b600061312e85828601612c90565b925050602083013567ffffffffffffffff81111561314f5761314e612afd565b5b61315b858286016130db565b9150509250929050565b6000806040838503121561317c5761317b612af8565b5b600061318a85828601612d45565b925050602061319b85828601612d45565b9150509250929050565b7f4e487b7100000000000000000000000000000000000000000000000000000000600052602260045260246000fd5b600060028204905060018216806131ec57607f821691505b6020821081036131ff576131fe6131a5565b5b50919050565b600060608201905061321a6000830186612d04565b6132276020830185612d9a565b6132346040830184612d04565b949350505050565b7f4e6f7420746865207469636b6574206f776e6572000000000000000000000000600082015250565b6000613272601483612bc8565b915061327d8261323c565b602082019050919050565b600060208201905081810360008301526132a181613265565b9050919050565b7f5469636b657420616c7265616479207573656400000000000000000000000000600082015250565b60006132de601383612bc8565b91506132e9826132a8565b602082019050919050565b6000602082019050818103600083015261330d816132d1565b9050919050565b60006040820190506133296000830185612d04565b6133366020830184612d9a565b9392505050565b7f4e487b7100000000000000000000000000000000000000000000000000000000600052603260045260246000fd5b7f416c6c207469636b6574732068617665206265656e20736f6c64000000000000600082015250565b60006133a2601a83612bc8565b91506133ad8261336c565b602082019050919050565b600060208201905081810360008301526133d181613395565b9050919050565b7f496e73756666696369656e74207061796d656e74000000000000000000000000600082015250565b600061340e601483612bc8565b9150613419826133d8565b602082019050919050565b6000602082019050818103600083015261343d81613401565b9050919050565b7f4e487b7100000000000000000000000000000000000000000000000000000000600052601160045260246000fd5b600061347e82612c6f565b91507fffffffffffffffffffffffffffffffffffffffffffffffffffffffffffffffff82036134b0576134af613444565b5b600182019050919050565b600081905092915050565b7f4576656e743a2000000000000000000000000000000000000000000000000000600082015250565b60006134fc6007836134bb565b9150613507826134c6565b600782019050919050565b60008190508160005260206000209050919050565b60008154613534816131d4565b61353e81866134bb565b94506001821660008114613559576001811461356e576135a1565b60ff19831686528115158202860193506135a1565b61357785613512565b60005b838110156135995781548189015260018201915060208101905061357a565b838801955050505b50505092915050565b7f2c20446174653a20000000000000000000000000000000000000000000000000600082015250565b60006135e06008836134bb565b91506135eb826135aa565b600882019050919050565b7f2c2056656e75653a200000000000000000000000000000000000000000000000600082015250565b600061362c6009836134bb565b9150613637826135f6565b600982019050919050565b7f2c205469636b6574202300000000000000000000000000000000000000000000600082015250565b6000613678600a836134bb565b915061368382613642565b600a82019050919050565b600061369982612bbd565b6136a381856134bb565b93506136b3818560208601612bd9565b80840191505092915050565b60006136ca826134ef565b91506136d68287613527565b91506136e1826135d3565b91506136ed8286613527565b91506136f88261361f565b91506137048285613527565b915061370f8261366b565b915061371b828461368e565b915081905095945050505050565b60006020601f8301049050919050565b600082821b905092915050565b6000600883026137767fffffffffffffffffffffffffffffffffffffffffffffffffffffffffffffffff82613739565b6137808683613739565b95508019841693508086168417925050509392505050565b6000819050919050565b60006137bd6137b86137b384612c6f565b613798565b612c6f565b9050919050565b6000819050919050565b6137d7836137a2565b6137eb6137e3826137c4565b848454613746565b825550505050565b600090565b6138006137f3565b61380b8184846137ce565b505050565b5b8181101561382f576138246000826137f8565b600181019050613811565b5050565b601f8211156138745761384581613512565b61384e84613729565b8101602085101561385d578190505b61387161386985613729565b830182613810565b50505b505050565b600082821c905092915050565b600061389760001984600802613879565b1980831691505092915050565b60006138b08383613886565b9150826002028217905092915050565b6138c982612bbd565b67ffffffffffffffff8111156138e2576138e1612eba565b5b6138ec82546131d4565b6138f7828285613833565b600060209050601f83116001811461392a5760008415613918578287015190505b61392285826138a4565b86555061398a565b601f19841661393886613512565b60005b828110156139605784890151825560018201915060208501945060208101905061393b565b8683101561397d5784890151613979601f891682613886565b8355505b6001600288020188555050505b505050505050565b7f5469636b657420646f6573206e6f742065786973740000000000000000000000600082015250565b60006139c8601583612bc8565b91506139d382613992565b602082019050919050565b600060208201905081810360008301526139f7816139bb565b9050919050565b6000613a0a828561368e565b9150613a16828461368e565b91508190509392505050565b7f4e6f7420617574686f72697a6564000000000000000000000000000000000000600082015250565b6000613a58600e83612bc8565b9150613a6382613a22565b602082019050919050565b60006020820190508181036000830152613a8781613a4b565b9050919050565b7f4e487b7100000000000000000000000000000000000000000000000000000000600052601260045260246000fd5b6000613ac882612c6f565b9150613ad383612c6f565b925082613ae357613ae2613a8e565b5b828204905092915050565b6000613af982612c6f565b9150613b0483612c6f565b9250828203905081811115613b1c57613b1b613444565b5b92915050565b6000613b2d82612c6f565b9150613b3883612c6f565b925082613b4857613b47613a8e565b5b828206905092915050565b6000613b5e82612c6f565b9150613b6983612c6f565b9250828201905080821115613b8157613b80613444565b5b92915050565b600081519050919050565b600082825260208201905092915050565b6000613bae82613b87565b613bb88185613b92565b9350613bc8818560208601612bd9565b613bd181612c03565b840191505092915050565b6000608082019050613bf16000830187612d04565b613bfe6020830186612d04565b613c0b6040830185612d9a565b8181036060830152613c1d8184613ba3565b905095945050505050565b600081519050613c3781612b2e565b92915050565b600060208284031215613c5357613c52612af8565b5b6000613c6184828501613c28565b91505092915050565b7f4e487b7100000000000000000000000000000000000000000000000000000000600052603160045260246000fdfea26469706673582212206e4d0700ae7371030cd762490e44c5e203c7dd2fa0d075a1e4ca6cd5d1c00b1464736f6c63430008140033",
  "linkReferences": {},
  "deployedLinkReferences": {}
}